S01C00007465737430342D54696D65722D6B69746368656E2E73726563A3
S11300004DC0000068C0000066C0000064C000006D
S113001062C00000EAC200005DC30000EFC300003C
S11300205AC0000058C0000056C0000054C0000070
S113003052C0000050C00000B3C200004CC0000019
S11300404AC0000048C0000046C0000044C0000090
S113005042C0000040C000003EC000003CC00000A0
S11300603AC0000038C0000036C0000034C00000B0
S113007032C0000030C000002EC000002CC00000C0
S11300802AC0000028C0000026C000000D01330172
S11300906C018F01C501ED012602430211241FBE2C
S11300A0CFEFD0E1DEBFCDBF11E0A0E0B1E0E6EAE2
S11300B0FBE000E00BBF02C007900D92A831B1072E
S11300C0D9F721E0A8E1B1E001C01D92A733B2073E
S11300D0E1F702D066C594CF8AB38F608ABB81B33F
S11300E08FEF81BB82B18F6082B963E270E082E3FB
S11300F090E01BD487B7846087BF8EB58EBD89B767
S1130100806789BF8AB78A628ABF8FB780688FBFCA
S113011078948091260190912701A0912801B091B3
S1130120290180379741A105B10540F010922601BD
S11301301092270110922801109229018091240124
S1130140909125018230910571F12CF4009759F0BA
S11301500197C1F01BC28330910509F4CDC1049706
S113016009F4F1C113C210922601109227011092D2
S113017028011092290181B38FEF81BB82B18F6076
S113018082B904C28091260190912701A09128018F
S1130190B09129018093180190931901A0931A0139
S11301A0B0931B01F3C18091220190912301049724
S11301B00297A8F480911C0190911D01863091054D
S11301C02CF010921D0110921C011CC09923D4F430
S11301D085E090E090931D0180931C0113C08091F1
S11301E01C0190911D0199233CF489E090E09093C7
S11301F01D0180931C0106C00A9724F010921D0172
S113020010921C01E0912201F0912301E830F105E4
S113021008F0BCC1EA5BFF4FA7C440911C01509198
S11302201D0128E532E0429FC001439F900D529F7B
S1130230900D1124092E000CAA0BBB0B40911E013A
S113024050911F016091200170912101840F951F2D
S1130250A61FB71F8093180190931901A0931A0148
S1130260B0931B0193C140911C0150911D0128E5DD
S113027032E0429FC001439F900D529F900D112484
S1130280092E000CAA0BBB0B40911E0150911F01BB
S11302906091200170912101840F951FA61FB71F43
S11302A080931E0190931F01A0932001B09321011C
S11302B082E090E0909301018093000110921D016F
S11302C010921C0180912201909123010196909338
S11302D02301809322015AC120911C0130911D01F8
S11302E04CE3429FC001439F900D1124092E000C42
S11302F0AA0BBB0B40911E0150911F01609120017C
S113030070912101840F951FA61FB71F80931801B8
S113031090931901A0931A01B0931B0137C1209146
S11303201C0130911D014CE3429FC001439F900D7D
S11303301124092E000CAA0BBB0B40911E015091F5
S11303401F016091200170912101840F951FA61F48
S1130350B71F80931E0190931F01A0932001B093B7
S1130360210181E090E090930101809300011092BB
S11303701D0110921C01809122019091230101968C
S1130380909323018093220101C120911C0130919B
S11303901D01C901880F991F220F331F220F331F1C
S11303A0220F331F820F931F092E000CAA0BBB0BC5
S11303B040911E0150911F01609120017091210113
S11303C0840F951FA61FB71F8093180190931901DE
S11303D0A0931A01B0931B01D9C020911C01309144
S11303E01D01C901880F991F220F331F220F331FCC
S11303F0220F331F820F931F092E000CAA0BBB0B75
S113040040911E0150911F016091200170912101C2
S1130410840F951FA61FB71F80931E0190931F0181
S1130420A0932001B09321011092010110920001C8
S113043010921D0110921C018091220190912301C0
S113044001969093230180932201A0C080911C0106
S113045090911D01092E000CAA0BBB0B40911E01AB
S113046050911F016091200170912101840F951F0B
S1130470A61FB71F8093180190931901A0931A0126
S1130480B0931B0183C080911C0190911D01092E22
S1130490000CAA0BBB0B40911E0150911F016091EF
S11304A0200170912101840F951FA61FB71F80930F
S11304B01E0190931F01A0932001B093210110927B
S11304C023011092220124E030E0309301012093B3
S11304D0000110921D0110921C0180931801909349
S11304E01901A0931A01B0931B0183E090E090934B
S11304F02501809324014AC080911E0190911F011F
S1130500A0912001B0912101409126015091270131
S11305106091280170912901841B950BA60BB70BE0
S11305208093180190931901A0931A01B0931B01B1
S1130530892B8A2B8B2B51F584E090E09093250135
S11305408093240123C01EBC10922601109227011F
S113055010922801109229018FE08BBB81B311BA4C
S11305608FEF91EE24E0815090402040E1F700C0ED
S113057000001BBA82B1807F82B98FEF91EE24E034
S1130580815090402040E1F700C0000060911801C4
S11305907091190180911A0190911B0131D2B9CD4A
S11305A01F920F920FB60F9211248F939F93AF93C4
S11305B0BF938091260190912701A0912801B091C9
S11305C029010196A11DB11D809326019093270155
S11305D0A0932801B0932901BF91AF919F918F916E
S11305E00F900FBE0F901F9018951F920F920FB689
S11305F00F9211248F939F93AF93BF938091240103
S113060090912501892BC9F481E090E09093250114
S1130610809324018091180190911901A0911A01ED
S1130620B0911B018093260190932701A093280188
S1130630B093290184E08EBD44C08091240190913F
S113064025010197B1F41EBC1092250110922401DA
S11306508091180190911901A0911A01B0911B0188
S113066080931E0190931F01A0932001B093210158
S113067028C08091240190912501029751F4809122
S11306801C0190911D01019690931D0180931C0102
S113069018C08091240190912501039741F48EB5EF
S11306A0882311F080E001C084E08EBD0AC08091EF
S11306B0240190912501049721F4109225011092B0
S11306C02401BF91AF919F918F910F900FBE0F9016
S11306D01F9018951F920F920FB60F9211248F93AB
S11306E09F938091240190912501892BF1F41EBCE4
S11306F010922601109227011092280110922901CC
S113070010922501109224011092180110921901DF
S113071010921A0110921B0110921E0110921F01D7
S1130720109220011092210162C0809124019091C5
S113073025010197F1F41EBC1092260110922701A5
S1130740109228011092290110922501109224017F
S1130750109218011092190110921A0110921B01A3
S113076010921E0110921F0110922001109221017B
S11307703EC08091240190912501029751F480910B
S11307801C0190911D01019790931D0180931C0100
S11307902EC080912401909125010397F1F41EBC91
S11307A0109226011092270110922801109229011B
S11307B0109225011092240110921E0110921F0123
S11307C01092200110922101109218011092190127
S11307D010921A0110921B010AC080912401909179
S11307E02501049721F410922501109224019F9170
S11307F08F910F900FBE0F901F9018951F920F921C
S11308000FB60F9211248F939F93AF93BF93809150
S1130810240190912501892B89F482E090E0909342
S113082025018093240183E090E09093010180935B
S1130830000110922301109222016EC080912401C4
S1130840909125010197F1F41EBC1092260110929B
S1130850270110922801109229011092250110926B
S11308602401109218011092190110921A01109289
S11308701B0110921E0110921F0110922001109270
S113088021014AC08091240190912501029751F4DD
S113089080912201909123010196909323018093EA
S11308A022013AC08091240190912501039751F5CA
S11308B01EBC8091180190911901A0911A01B09168
S11308C01B0180931E0190931F01A0932001B093FC
S11308D021011092260110922701109228011092F2
S11308E0290182E090E0909325018093240183E024
S11308F090E09093010180930001109223011092E3
S113090022010AC08091240190912501049721F4C9
S11309101092250110922401BF91AF919F918F9164
S11309200F900FBE0F901F90189590930501809320
S1130930040170930301609302010895E0910201A0
S1130940F091030190819F609083E0910201F09106
S11309500301908121E030E002C0220F331F8A9509
S1130960E2F7209529232083E0910401F091050109
S113097060838FE19EE40197F1F700C000000895C1
S11309800F931F93CF93DF938C01C0E0D0E030C06E
S11309908091000190910101C817D90711F5809148
S11309A02A0190912B019C012F5F3F4F30932B0123
S11309B020932A016EE170E0A2D060FF18C0F80114
S11309C0EC0FFD1F6081CE01B9DF80912A01909167
S11309D02B01813197425CF010922B0110922A0175
S11309E006C0F801EC0FFD1F6081CE01A7DF219640
S11309F0C430D1056CF2DF91CF911F910F9108950E
S1130A004F925F926F927F928F929F92AF92BF921A
S1130A10CF92DF92EF92FF92CF93DF93CDB7DEB701
S1130A2028970FB6F894DEBF0FBECDBF20E737E19D
S1130A3040E050E077D02B013C010F2EFAE0CF2E9E
S1130A40D12CE12CF12CF02DA70196016BD04B0198
S1130A505C01C301B2012CE330E040E050E062D01D
S1130A6029833A834B835C83A70196015BD02D8352
S1130A703E834F83588769817A818B819C81A7014A
S1130A80960150D069837A838B839C83C301B2011E
S1130A9028E532E040E050E045D0F401EA5FFE4F43
S1130AA08081ECE2F1E08083AD81BE81AA5FBE4F1C
S1130AB08C918183A981BA81AA5FBE4F8C91806891
S1130AC08283D901AA5FBE4F8C918383CF0158DF03
S1130AD08CE291E028960FB6F894DEBF0FBECDBF2E
S1130AE0DF91CF91FF90EF90DF90CF90BF90AF90C8
S1130AF09F908F907F906F905F904F90089597FB99
S1130B00072E16F4009406D077FD08D036D007FCE3
S1130B1005D03EF4909581959F4F08957095619509
S1130B207F4F0895A1E21A2EAA1BBB1BFD010DC025
S1130B30AA1FBB1FEE1FFF1FA217B307E407F50789
S1130B4020F0A21BB30BE40BF50B661F771F881F65
S1130B50991F1A9469F760957095809590959B01FB
S1130B60AC01BD01CF010895EE0FFF1F0024001C4E
S1130B700BBE0790F691E02D0994AA1BBB1B51E113
S1130B8007C0AA1FBB1FA617B70710F0A61BB70BF9
S1130B90881F991F5A95A9F780959095BC01CD019E
S1090BA00895F894FFCF54
S1130BA60400230032003F065B4F666D7D277F6F8E
S10B0BB6777C585E7971C000E0
S9030000FC
