:1000000045C0000060C000005EC000005CC0000091
:100010005AC0000058C0000056C0000054C0000084
:1000200052C0000050C000004EC000004CC0000094
:100030004AC0000048C0000073C0000044C0000077
:1000400042C0000040C000003EC000003CC00000B4
:100050003AC0000038C0000036C0000034C00000C4
:1000600032C0000030C000002EC000002CC00000D4
:100070002AC0000028C0000026C0000024C00000E4
:1000800022C0000020C000001EC0000011241FBEBE
:10009000CFEFD0E1DEBFCDBF11E0A0E0B1E0E0E8FE
:1000A000F3E000E00BBF02C007900D92A831B1074A
:1000B000D9F721E0A8E1B1E001C01D92A132B20759
:1000C000E1F702D05BC19CCF63E270E082E390E095
:1000D0004CD087B7846087BF84E08EBD8FB78068BF
:1000E0008FBF78948091180190911901A0911A0105
:1000F000B0911B010097A140B10540F0109218018A
:100100001092190110921A0110921B0160911801AE
:100110007091190180911A0190911B0172D0E2CF68
:100120001F920F920FB60F9211248F939F93AF934C
:10013000BF938091180190911901A0911A01B0917B
:100140001B010196A11DB11D809318019093190107
:10015000A0931A01B0931B01BF91AF919F918F9112
:100160000F900FBE0F901F901895909305018093EC
:10017000040170930301609302010895E09102016C
:10018000F091030190819F609083E0910201F091D2
:100190000301908121E030E002C0220F331F8A95D5
:1001A000E2F7209529232083E0910401F0910501D5
:1001B00060838FE19EE40197F1F700C0000008958D
:1001C0000F931F93CF93DF93209100013091010192
:1001D000121613068CF4082F192FC0E0D0E0F80196
:1001E00061918F01CE01CADF21968091000190912B
:1001F0000101C817D9079CF3DF91CF911F910F918F
:1002000008954F925F926F927F928F929F92AF92DA
:10021000BF92CF92DF92EF92FF920F931F93CF93F3
:10022000DF9321B32FEF21BB22B12F6022B92FEF33
:100230003FEF40E050E080D06B017C010F2EFAE0F0
:100240004F2E512C612C712CF02DA301920174D0F2
:100250004B015C01CA01B901A30192016DD08B0170
:10026000C701B60124E630E040E050E065D0CA01A5
:10027000B901A301920160D0EB0188EEC81683E0BA
:10028000D806E104F10450F0C701B60128EE33E0CE
:1002900040E050E051D084E090E020C084E6C816F1
:1002A000D104E104F10468F48AE0C816D104E10441
:1002B000F10460F021E130E0C1E1D0E082E090E0C3
:1002C0000DC021E130E083E090E008C021E130E0A2
:1002D000C1E1D0E001E110E081E090E09093010104
:1002E00080930001ECE1F1E0D401AA5FBE4F8C9154
:1002F0008083D801AA5FBE4F8C918183CA5FDE4F95
:1003000088818283D901AA5FBE4F8C918383CF01FC
:1003100057DF8CE191E0DF91CF911F910F91FF901A
:10032000EF90DF90CF90BF90AF909F908F907F9095
:100330006F905F904F900895A1E21A2EAA1BBB1BED
:10034000FD010DC0AA1FBB1FEE1FFF1FA217B307A1
:10035000E407F50720F0A21BB30BE40BF50B661FB7
:10036000771F881F991F1A9469F76095709580957B
:1003700090959B01AC01BD01CF010895F894FFCF8A
:100380000400230032003F065B4F666D7D277F6FC0
:08039000777C585E7971C00012
:00000001FF
