S01200007465737430365F4144432E73726563C5
S113000045C0000060C000005EC000005CC000008D
S11300105AC0000058C0000056C0000054C0000080
S113002052C0000050C000004EC000004CC0000090
S11300304AC0000048C0000046C0000044C00000A0
S113004042C0000040C000003EC000003CC00000B0
S11300503AC0000038C0000036C0000034C00000C0
S113006032C0000030C000002EC000002CC00000D0
S11300702AC0000028C0000026C0000024C00000E0
S113008022C0000020C000001EC0000011241FBEBA
S1130090CFEFD0E1DEBFCDBF11E0A0E0B1E0E8E7F3
S11300A0F3E000E00BBF02C007900D92A831B10746
S11300B0D9F721E0A8E1B1E001C01D92AD31B2074A
S11300C0E1F71CD057C19CCF87B1806487B986B152
S11300D0876086B986B1806886B986B1806286B940
S11300E087B197B1807E892B87B986B1806486B940
S11300F00895349BFECF84B195B108958FEF81BBF1
S11301008FE082B9E1E6F0E0108284E0808380E051
S1130110DBDF80E789BF8AE28ABF63E270E082E3C3
S113012090E010D08FB780688FBF7894E2DFBC0175
S113013080E090E04DD08FE19EE40197F1F700C09C
S11301400000F4CF909305018093040170930301A0
S1130150609302010895E0910201F09103019081FE
S11301609F609083E0910201F0910301908121E06E
S113017030E002C0220F331F8A95E2F7209529232D
S11301802083E0910401F091050160838FE19EE4F6
S11301900197F1F700C0000008950F931F93CF93C8
S11301A0DF938C01C0E0D0E007C0F801EC0FFD1F25
S11301B06081CE01D0DF21968091000190910101F0
S11301C0C817D90794F3DF91CF911F910F91089528
S11301D04F925F926F927F928F929F92AF92BF9253
S11301E0CF92DF92EF92FF920F931F93CF93DF93FF
S11301F021B32FEF21BB22B12F6022B92FEF3FEFA4
S113020040E050E095D06B017C010F2EFAE04F2EB8
S1130210512C612C712CF02DA301920189D04B013A
S11302205C01CA01B901A301920182D08B01C7010B
S1130230B60124E630E040E050E07AD0CA01B901CA
S1130240A301920175D0EB01C701B60128EE33E09A
S113025040E050E06DD088EEC81683E0D806E10493
S1130260F104D0F484E6C816D104E104F10458F48E
S11302708AE0C816D104E104F10440F021E130E041
S1130280C1E1D0E009C021E130E006C021E130E065
S1130290C1E1D0E001E110E088EEC81683E0D806A1
S11302A0E104F10478F484E6C816D104E104F1040D
S11302B060F48AE0C816D104E104F10448F082E055
S11302C090E008C084E090E005C083E090E002C0C4
S11302D081E090E09093010180930001F401EA5FD2
S11302E0FE4F8081E8E1F1E08083D801AA5FBE4F30
S11302F08C918183CA5FDE4F88818283D901AA5F92
S1130300BE4F8C918383CF0148DF88E191E0DF9178
S1130310CF911F910F91FF90EF90DF90CF90BF90FE
S1130320AF909F908F907F906F905F904F900895C3
S1130330A1E21A2EAA1BBB1BFD010DC0AA1FBB1FE5
S1130340EE1FFF1FA217B307E407F50720F0A21B57
S1130350B30BE40BF50B661F771F881F991F1A94C4
S113036069F760957095809590959B01AC01BD01EE
S10B0370CF010895F894FFCFBA
S11303780400230032003F065B4F666D7D277F6FC4
S10B0388777C585E7971C00016
S9030000FC
